{
  "transactions": [
    {
      "hash": null,
      "transactionType": "CREATE",
      "contractName": "SlotStorage",
      "contractAddress": "0x5b73c5498c1e3b4dba84de0f1833c4a029d90519",
      "function": null,
      "arguments": null,
      "transaction": {
        "from": "0x1804c8ab1f12e6bbf3894d4083f33e07309d1f38",
        "gas": "0x372e0",
        "value": "0x0",
        "input": "0x6080604052348015600e575f5ffd5b5061022e8061001c5f395ff3fe608060405234801561000f575f5ffd5b506004361061004a575f3560e01c80630dbe671f1461004e57806348f778171461006c5780634df7e3d014610088578063c3da42b8146100a6575b5f5ffd5b6100566100c4565b6040516100639190610106565b60405180910390f35b61008660048036038101906100819190610180565b6100c9565b005b6100906100e2565b60405161009d9190610106565b60405180910390f35b6100ae6100e8565b6040516100bb91906101df565b60405180910390f35b5f5481565b825f819055508160018190555080600281905550505050565b60015481565b60025481565b5f819050919050565b610100816100ee565b82525050565b5f6020820190506101195f8301846100f7565b92915050565b5f5ffd5b61012c816100ee565b8114610136575f5ffd5b50565b5f8135905061014781610123565b92915050565b5f819050919050565b61015f8161014d565b8114610169575f5ffd5b50565b5f8135905061017a81610156565b92915050565b5f5f5f606084860312156101975761019661011f565b5b5f6101a486828701610139565b93505060206101b586828701610139565b92505060406101c68682870161016c565b9150509250925092565b6101d98161014d565b82525050565b5f6020820190506101f25f8301846101d0565b9291505056fea2646970667358221220abd0cc261e49c79b9f921eb907c56671727cee4bb05f38283a61b93f67b10ba364736f6c634300081e0033",
        "nonce": "0x0",
        "chainId": "0x7a69"
      },
      "additionalContracts": [],
      "isFixedGasLimit": false
    },
    {
      "hash": null,
      "transactionType": "CALL",
      "contractName": "SlotStorage",
      "contractAddress": "0x5b73c5498c1e3b4dba84de0f1833c4a029d90519",
      "function": "setValues(uint256,uint256,bytes32)",
      "arguments": [
        "1",
        "2",
        "0x0000000000000000000000000000000000000000000000000000000000acacac"
      ],
      "transaction": {
        "from": "0x1804c8ab1f12e6bbf3894d4083f33e07309d1f38",
        "to": "0x5b73c5498c1e3b4dba84de0f1833c4a029d90519",
        "gas": "0x1fa16",
        "value": "0x0",
        "input": "0x48f77817000000000000000000000000000000000000000000000000000000000000000100000000000000000000000000000000000000000000000000000000000000020000000000000000000000000000000000000000000000000000000000acacac",
        "nonce": "0x1",
        "chainId": "0x7a69"
      },
      "additionalContracts": [],
      "isFixedGasLimit": false
    }
  ],
  "receipts": [],
  "libraries": [],
  "pending": [],
  "returns": {},
  "timestamp": 1774264154612,
  "chain": 31337,
  "commit": "11e0a53"
}